:020000040800F2
:10000000E022002065020008472F0008DD2A0008D2
:10001000452F0008011800085136000800000000B4
:10002000000000000000000000000000CD010008FA
:100030003118000800000000110200081B30000801
:100040007F0200087F0200087F0200087F0200088C
:100050007F0200087F0200087F0200087F0200087C
:100060007F0200087F0200087F0200087F0200086C
:100070007F0200087F0200087F0200087F0200085C
:100080007F0200087F0200087F0200087F0200084C
:100090007F0200087F0200087F0200087F0200083C
:1000A0007F0200087F0200087F0200087F0200082C
:1000B0007F0200087F020008953000087F020008D8
:1000C0007F0200087F0200087F0200087F0200080C
:1000D0007F0200087F0200087F0200087F020008FC
:1000E0007F0200087F0200087F02000800F002F88B
:1000F00000F05DF80AA090E8000C82448344AAF165
:100100000107DA4501D100F052F8AFF2090EBAE862
:100110000F0013F0010F18BFFB1A43F0010318473B
:100120002C6300004C6300000A4410F8014B14F0EB
:100130000F0508BF10F8015B240908BF10F8014B38
:100140006D1E05D010F8013B6D1E01F8013BF9D181
:10015000641E03D0641E01F8015BFBD19142E4D31D
:10016000704700000023002400250026103A28BF15
:1001700078C1FBD8520728BF30C148BF0B60704719
:10018000662906F00280642900F0EE80732900F0F1
:100190005E85002070471FB500F0B2FD040000200E
:1001A000002105F0B7F8E0601FBD10B510BD00F0EC
:1001B000ABFE1146FFF7EFFF03F096FC00F0C9FE1F
:1001C00003B4FFF7F2FF03BC00F00EFF224B1968E7
:1001D0000868B0E8F00F80F30988BFF36F8F4FF025
:1001E000000080F311884EF00D0E704700000000F3
:1001F00006480068006880F3088862B661B6BFF3FD
:100200004F8FBFF36F8F00DF00BF00BF08ED00E02E
:10021000EFF30980BFF36F8F0F4B1A6820E9F00FDF
:10022000106008B54FF0500080F31188BFF34F8F76
:10023000BFF36F8F04F066FB4FF0000080F311886E
:10024000BDE8084019680868B0E8F00F80F3098835
:10025000BFF36F8F704700BF14000020EFF30580DD
:10026000704700000948804709480047FEE7FEE75D
:10027000FEE7FEE7FEE7FEE7FEE7FEE7FEE7FEE756
:1002800004480549054A064B7047000093300008B2
:10029000ED000008E01C0020E0220020E01E00200D
:1002A000E01E002010B54C1084EA530404D54042EF
:1002B000C1F1000138BF491E1B4204D55242C3F1AF
:1002C000000338BF5B1E00F0A8F914F0804F04D083
:1002D0004042C1F1000138BF491E14F0004F04D064
:1002E0005242C3F1000338BF5B1E10BD0FB41CB5F2
:1002F000074B06AA7B4469460090059800F07DFCF8
:100300000020694600F08CFC1CBC5DF814FB00006A
:100310002909000070B50C460546012A05D0287849
:10032000800600D5EA69002302E0012305E05B1C9A
:10033000934202D2E05C0028F9D1A869E618C01AFD
:10034000A861286A184428622846AFF3008004E0B8
:10035000D5E9012114F8010B9047B442F8D328469F
:10036000AFF3008070BD00002DE9F0410646002487
:1003700010687529314616A510D0AFF3008000280B
:1003800002DA404213A507E031688A0701D512A5B9
:1003900002E0490704D511A5012401E0AFF3008074
:1003A00000210A2206F1240709E0B0FBF2FCB0FBB1
:1003B000F2F302FB1C00303078541846491C002828
:1003C000F3D123462A463046BDE8F04100F0A7B9F4
:1003D000000000002D0000002B00000020000000A5
:1003E0002DE9F0474FF0000A89460446C0F820A0E6
:1003F0002046E1688847002876D0252806D0D4E931
:1004000001219047206A401C2062F1E7E168204604
:1004100000258847C4F81CA006460027C4F818A089
:100420002A2E09D0304603F0AAF938B304EB870826
:10043000303EC8F8186019E059F8041B204604EB58
:1004400087029161E1688847012F064618D1E0696B
:10045000002820DA25F020051DE0D8F8180000EB70
:10046000800006EB40003038C8F818002046E168EC
:100470008847064603F083F90028EED1012F0AD001
:100480002E2E08D12046E16888477F1C0646022FA1
:1004900045F02005C4DBA069002803DA404245F09E
:1004A0000105A061E80701D025F01005B6B1A6F15D
:1004B0004100192802D8203645F400654A463146E5
:1004C000204625604D46FFF75BFE58B1012806D057
:1004D000ED1D25F0070000F1080989E704E005F1AA
:1004E000040985E730468AE7206ABDE8F08710B541
:1004F000431C02E010F8011B71B18107FAD14FF0E3
:10050000013202C88C1A8C4314EAC211F9D0C01A05
:100510000A0603D0C01E10BDC01A10BD0A0401D0C7
:10052000801E10BD0902FCD0401E10BD032A40F2FF
:10053000308010F0030C00F0158011F8013BBCF185
:10054000020F624498BF11F801CB00F8013B38BF9D
:1005500011F8013BA2F1040298BF00F801CB38BFAB
:1005600000F8013B11F0030300F07583083AC0F076
:10057000088051F8043B083A51F804CBA0E8081071
:10058000F5E7121D5CBF51F8043B40F8043BAFF3A4
:100590000080D20724BF11F8013B11F801CB48BFFE
:1005A00011F8012B24BF00F8013B00F801CB48BF34
:1005B00000F8012B704702F0FF0343EA032242EAEE
:1005C000024200F07CBB4FF0000200B51346944697
:1005D0009646203922BFA0E80C50A0E80C50B1F19B
:1005E0002001BFF4F7AF090728BFA0E80C5048BFAF
:1005F0000CC05DF804EB890028BF40F8042B08BF4D
:10060000704748BF20F8022B11F0804F18BF00F848
:10061000012B704770477047704753EA020C00F097
:1006200069802DE9F04B4FF00006002B1FBFB3FA95
:1006300083F503FA05F424FA05F65E4012BF16436B
:10064000B2FA82F502FA05F4C5F120051EBF22FABE
:1006500005FC44EA0C04203556EA044C4FEA1444E5
:1006600018BF641C4FF000084FF00009904271EB76
:10067000030C39D3002919BFB1FA81F701FA07F643
:10068000B0FA80F700FA07F6C7F120071EBF20FA7C
:1006900007FC46EA0C062037B6FBF4FCA7EB05077F
:1006A000103F07F01F0BCBF120060CFA0BFB2CFAC6
:1006B00006F644BFB3460026202FA4BF5E464FF087
:1006C000000B5BEA060C08BF4FF0010B19EB0B099E
:1006D000ABFB027C48EB0608C01B06FB02CC0BFB05
:1006E00003CC71EB0C01C1E70B460246414648467C
:1006F000BDE8F08B13B54FF000004FF00001AFF3F1
:100700000080BDE81C40704710B500F0FDFA00689D
:1007100010BD10B5044600F0F7FA046010BD2DE9D5
:10072000F0470D4699469246044600F124080168B8
:10073000880604D5E06921F01001216000E0012065
:10074000A84201DD471B00E00027A1697A1902EBEE
:100750000900081AA0612078C00602D42046AFF331
:100760000080002608E0D4E901211AF8060090472D
:10077000206A401C761C20624E45F4DB2078C006BF
:100780000AD52046AFF3008006E0D4E901213020ED
:100790009047206A401C2062381EA7F10107F4DC54
:1007A00007E0D4E9012118F805009047206A401CB1
:1007B0002062281EA5F10105F3DC2046AFF300807E
:1007C0002078000602D50220BDE8F0870120FBE773
:1007D00070472DE9FF4F0C461E464FF0FF378BB098
:1007E000D2E90001DDF860800A908A46C1F30A551B
:1007F00005B93D46002108464FF00000BAF1000F50
:1008000000F4400005DA00EB80004FF4400101EAFB
:1008100050004FEA9059B9F1010F00DDB9460A982E
:1008200050EA4A000ED044F61050A5F2FF35454379
:100830002F14B8F1000F1ED07542291E1EDDC9F11C
:1008400000021CE0B8F1010F4FF0000001D0302190
:1008500003E0F24305E02154401CB042FBDB30468C
:100860000022002121540B99C1F80880C1E9002021
:100870000FB0BDE8F08FBD1B6D1CDEE74A4600DA05
:10088000694206A800F0CAFA06AB93E8070003AB7A
:1008900083E8070050460A9900F0ACFB8DE807009A
:1008A000A0F500501F3800900398002D0ADD42F299
:1008B0001F014A460844002303A90390684600F03C
:1008C00015FE09E0A0F500504A461F38002303A991
:1008D0000390684600F01FFE8DE807000004000C3E
:1008E00003D04FF0FF30410800E01046B8F1000F90
:1008F00003D00022009215461EE0751E05D400F0BC
:1009000007FA303262556D1EF9D5B346012208430D
:1009100002D000227F1C04E02078302801D1002280
:100920007F1E002A099784D01DE0112D07DA00F000
:10093000EFF9303262556D1C50EA0102F5D10843DF
:1009400002D00098C8B10EE00021681E05E0235CCB
:10095000625C63542254401E491C8142F7DBAB4663
:10096000A81B401E0990002004F80B000B98099A60
:10097000C0F80880C0E9002B7AE711264FF0000884
:1009800057E72DE9F04F88460446D21D22F00701B3
:1009900091B0D1E90001CDE90A0102F066FE0246FC
:1009A0000B98C00F01D02D2007E02068810701D5EA
:1009B0002B2002E0202101EAC000032A099001D087
:1009C000072A05DB03464146204600F0E7F90BE124
:1009D0002078800601D5E06900E00620B8F1650FB7
:1009E000814606D0B8F1660F18D0B8F1670F70D104
:1009F00031E00020B9F1110F009001DB112301E07B
:100A000009F101030AAA01A90CA8FFF7E2FEDDE93A
:100A10000C70002609F10105834647E001204B4692
:100A200000904FF000470AAA01A90CA8FFF7D1FED9
:100A3000DDE90DB00C995D46002610B909F1010001
:100A40000D18B9EB050003D4C0F1FF3609F101051B
:100A5000A5EB09002BE0B9F1010F01DA4FF0010914
:100A60000020B9F1110F0090484601DD112300E08C
:100A700003460AAA01A90CA8FFF7ABFEDDE90C703A
:100A80004D4600268346207800070AD4AB4500DA9D
:100A90005D4601A8012D04DD411911F8011C302922
:100AA00007D04F4502DA17F1040F04DA012082461D
:100AB0000FE06D1EEEE7002F02DCED1B3E4403E06D
:100AC000781CA84200DD7D1CB81B00F1010A4FF024
:100AD00000472078000703D4AA4501DB4FF0FF3A16
:100AE0000021B7F1004F0DF143088DF8431024D0D9
:100AF00002202B23002F01DA7F422D230A21021E20
:100B0000A0F1010000DC5FB197FBF1FC97FBF1F273
:100B100001FB1C7C17460CF1300C08F801CDEEE708
:100B2000A8F1010003702188090501D5452100E0E5
:100B30006521A0F1010800F8011C09980FA9A1EB9B
:100B40000807FF1D00B10120411901EBEA70A169FE
:100B50003844081A401EA0612078C00602D42046FE
:100B6000AFF30080099828B1D4E901219047206AA9
:100B7000401C20622078C00622D52046AFF30080BA
:100B80001EE0002E04DBB34502DD01A8805D00E01D
:100B90003020D4E901219047206A401C2062761C55
:100BA000AAF101005FEA000A0AD100F0A9F8C068C2
:100BB0000168405CD4E901219047206A401C206212
:100BC000281EA5F10105DCDC07E0D4E9012118F8B5
:100BD000010B9047206A401C2062381EA7F10107D4
:100BE000F3DC2046AFF30080032011B041E60000A3
:100BF00001694A1C02610878704700B58FB0CDE9E1
:100C000001310021059105497944CDE903101146D0
:100C10006846FFF7E5FB0FB000BD0000E5FFFFFFF2
:100C20000A6802F8010B0A60704710B5436913B1F6
:100C3000AFF3008001E0FFF76DFB012010BD1278DB
:100C400000F124010A7000224A700122EDE71168C8
:100C50004FF0FF32E9E710B5203AC0F00B80B1E861
:100C60001850203AA0E81850B1E81850A0E81850E1
:100C7000BFF4F5AF5FEA027C24BFB1E81850A0E8EA
:100C8000185044BF18C918C0BDE810405FEA827C04
:100C900024BF51F8043B40F8043B08BF7047D2071B
:100CA00028BF31F8023B48BF11F8012B28BF20F8BC
:100CB000023B48BF00F8012B70474FF000020429A7
:100CC000C0F0128010F0030C3FF47FACCCF1040CA8
:100CD000BCF1020F18BF00F8012BA8BF20F8022BAF
:100CE000A1EB0C01FFF771BC5FEAC17C24BF00F8E7
:100CF000012B00F8012B48BF00F8012B70470000C2
:100D000000487047A01C002000487047801C00204D
:100D100030B5B0F10A024FEA900E71F100034EEACD
:100D2000817EB0EB0E0061EB91014FEA101E4EEA9E
:100D3000017E10EB0E0041EB11114FEA102E4EEA2E
:100D4000016E10EB0E0041EB11214FEA104E4EEAFE
:100D5000014E10EB0E0041EB1141401841F1000132
:100D60004FEAD00040EA41704FEAD10110EB800514
:100D70004FEA810444EA907444EB01046D1944EB9A
:100D80000404521BA3414FF0000348BF0A3200D5B0
:100D900030BD401C41F1000130BD00002DE9F041A3
:100DA0001F46044603260168072A01F4006004DB9D
:100DB00008B116A505E016A503E008B115A500E0E9
:100DC00015A521F010002060A069C01EA0610FB120
:100DD000401EA0612046AFF300804FB1D4E901214D
:100DE00038469047206A401C2062C01C206206E002
:100DF000206AFAE7D4E9012115F8010B9047761E25
:100E0000F8D22046AFF30080BDE8F0814E414E009D
:100E10006E616E00494E4600696E66002DE9F0472E
:100E2000814616468AB0354878440DC88DE80D00D5
:100E300032487844801C03AC0DC884E80D0041F6AC
:100E40009B300844372190FBF1F290FBF1F5A5F1BE
:100E5000800501FB12041B3C02D56442012000E026
:100E60000020DFF898A080460027FA44AAF1BE0AC5
:100E70000EE0E0070AD03246684607EB470101233F
:100E80000AEB810100F047FB8DE8070064107F1C2E
:100E9000002CEED1194F7F44AE3F19E0E80715D082
:100EA00007EB04100DF1180A90E80E008AE80E0016
:100EB000C068F04201D1981908903246012306A972
:100EC00003A800F028FB03AB83E807006D10641C47
:100ED000002DE3D14FF0010332466946B8F1000F0F
:100EE00003A802D000F002FB01E000F014FBC9E906
:100EF0000001C9F808200AB0BDE8F087D05500000D
:100F000000487047801C00207546FFF7F9FFAE4689
:100F100005006946534620F00700854618B020B505
:100F2000FFF7AEF9BDE820404FF000064FF0000794
:100F30004FF000084FF0000B21F00701AC46ACE881
:100F4000C009ACE8C009ACE8C009ACE8C0098D46EE
:100F5000704710B50446AFF300802046BDE810404E
:100F6000FFF72EB94FF0013C50F8042B51F8043B29
:100F70009A4221D1A2EB0C03934313EACC1317D16D
:100F800050F8042B51F8043B9A4215D1A2EB0C0304
:100F9000934313EACC130BD150F8042B51F8043BC4
:100FA0009A4209D1A2EB0C03934313EACC13DBD092
:100FB0004FF00000704700BFD01A01BAB1FA81F1BA
:100FC00001F0180122FA01F0CB40C1F12001DBB29F
:100FD000C0B2C01A2CFA01F3D11A914311EAC3111D
:100FE000E6D170477047000001491820ABBEFEE70C
:100FF000260002005FEA400C08BF91F0000F4FEAA4
:101000008C234FEAC12243EA51514FEA1C5018BFCA
:1010100000F5F0404FEA300018BF41F000415FEAB0
:101020006C5C00F02980BCF1FF3F08BF40F08040BD
:101030007047130C06BF12044FF0100C4FF0000C59
:10104000130E04BF12020CF1080C130F04BF12019F
:101050000CF1040C930F04BF92000CF1020CD30F9F
:1010600004BF52000CF1010C11464FF00002A0F138
:101070001F00A0EB0C00704711F0004F08BF704735
:1010800031F000413FF4D5AF0B0C06BF09044FF01F
:10109000100C4FF0000C0B0E04BF09020CF1080CF1
:1010A0000B0F04BF09010CF1040C8B0F04BF890066
:1010B0000CF1020CCB0F04BF49000CF1010CCCF178
:1010C0002003A0EB0C0022FA03F302FA0CF241EA2F
:1010D000030100F10100704720F07F4C80EA03001B
:1010E00023F07F47ACEB070303F57C5300F000408F
:1010F00003F1FF032DE980494FEA154B09B44FEA8C
:10110000144325EA0B4E24EA03480FF2042606EBAB
:10111000132749083E785FEA320203FB0667C7F5EA
:10112000000707FB06F64FEA54374FEAD64606F1AA
:10113000020607FB066CCCF1005C4FEA1C472CEA68
:10114000074C07FB06F40CFB06F504EB15464FEACB
:10115000961634BF00204FF000404FEAD13706FB0F
:1011600007FC4FEA1C4C0CFB0BF7D21B03FB0CF7E4
:1011700061EB07010CFB0EF7B0EB074072EB174277
:101180000CFB08F734BFA2EB0742B2EB074261EB5E
:1011900017414FEA0C444FEA910706FB07FC4FEA60
:1011A0001C4C0CFB0BF7B0EBC74072EB573203FB48
:1011B0000CF734BFA2EBC742B2EBC74261EB573129
:1011C0000CFB0EF7B0EBC70072EB57720CFB08F785
:1011D00034BFA2EBC702B2EBC70261EB5771039FAA
:1011E0004FEA816141EA921104EBCC044FEAD13716
:1011F0004FEA826206FB07FC42EA90124FEA8060E7
:101200004FEA1C4C0CFB0BF7D21B03FB0CF761EBFA
:1012100007010CFB0EF7B0EB074072EB17420CFB1B
:1012200008F734BFA2EB0742B2EB074261EB17416C
:101230004FEA8C554FEA910704EB9C2406FB07FC10
:101240004FEA1C4C0CFB0BF7B0EBC74072EB57326C
:1012500003FB0CF734BFA2EBC742B2EBC74261EB12
:1012600057310CFB0EF7B0EBC70072EB57720CFB5B
:1012700008F734BFA2EBC702B2EBC70261EB5771AC
:1012800015EB4C254FEA816141EA92114FEA8262E7
:101290004FEAD13742EA901206FB07FC44F1000402
:1012A0004FEA80604FEA1C4C0CFB0BF7D21B03FB90
:1012B0000CF761EB07010CFB0EF7B0EB074072EB8C
:1012C00017420CFB08F734BFA2EB0742B2EB074210
:1012D00061EB174115EB1C154FEA813141EA924150
:1012E0004FEA823242EA90424FEA80304FEA0C766F
:1012F00044F1000448EA03434EEA0B484FF0000E65
:10130000B2EB080C71EB030724BF624639464EEB83
:101310000E0E4FF0000B0018524149414BEB0B0BE6
:10132000B2EB080C71EB03077BF1000B24BF6246A4
:1013300039464EEB0E0E4FF0000B0018524149415A
:101340004BEB0B0BB2EB080C71EB03077BF1000BC3
:1013500024BF624639464EEB0E0E51EA020718BF13
:1013600046F0010616EB0E7655F1000254F100012D
:1013700003D5BDE88901BDE80088BDE88901BDE865
:101380000048B619524141EB0101A3F10103704736
:1013900080807F7E7D7C7B7A7978777676757473B2
:1013A000727171706F6E6E6D6C6C6B6A6A69686871
:1013B000676666656464636362616160605F5F5E07
:1013C0005E5D5D5C5C5B5B5A5A595958585757567D
:1013D00056555555545453535252525151505050E2
:1013E0004F4F4F4E4E4D4D4D4C4C4C4B4B4B4A4A34
:1013F0004A49494948484847474747464646454578
:1014000045444444444343434342424242414141B0
:10141000002B9C4630D477002BD01CB54FEA370701
:1014200003B44FF010004FF01001BAF1000F06D0D6
:10143000BCF1000FDCBF40F0080040F008014FF0A5
:1014400000000FBCBDE810400BF1010BBBF1010F18
:1014500008BF5FEA170722BF12F1010211F1010173
:101460004FF0004143F1000300F0004043EA000068
:101470007047F9D35708D0E746EA064613F1400F04
:101480004FEA16461FDD13F1200FDFBF16430A4651
:10149000002120335B42BED0C3F1200746EA064656
:1014A00002FA07F74FEA164646EA0706C3F1200795
:1014B00022FA03F201FA07F721FA03F14FF00003D1
:1014C00042EA0702A7E746EA020646EA06464FEA6C
:1014D000164646EA0106BCBF46EA0646360C4FF001
:1014E00000034FF000024FF0000194E72DE9804C1B
:1014F0009A46934670B491E8380007C831EA400C28
:1015000048BF34EA430C03D5FFF7E6FDFFF780FF41
:10151000F0BCBDE8008C2DE9804C9A46934670B42F
:1015200091E8380007C810F0804F08BF13F0804FD3
:1015300003D100F005F8FFF76BFFF0BCBDE8008CAD
:1015400020F07F4780EA030023F07F4C07EB0C0379
:10155000A3F57C5300F00040A3F1FE0392F0000FCE
:1015600000F0B38095F0000F00F077802DE901497D
:101570004FEA11404FEA144621EA004800FB06FCFE
:1015800024EA064708FB06F607FB08F800FB07F706
:1015900018EB06484CEB164C4FEA124B18EB074879
:1015A0004FEA15464CEB174022EA0B4E0BFB06FCAC
:1015B00025EA06470EFB06F607FB0EFE0BFB07F7B8
:1015C0001EEB064E4CEB164C4FF000061EEB074E82
:1015D0004CEB174B18EB0B0840F1000018EB0E0B0F
:1015E00058EB000840F100008F1A4FF000013CBF9B
:1015F000C943661B14BFB5EB040C00213CBFC943B3
:10160000F61B4FEA17444EEA8E0E27EA04454FEACE
:101610001C4704FB07622CEA074C05FB07F70CFB91
:1016200005F604FB0CFC16EB074642EB174216EBE3
:101630000C4642EB1C421BEB060658EB02024141F2
:1016400046EA9E0601D5BDE80189B619524141EB33
:101650000101A3F10103BDE801894FEA14454FEAF6
:10166000114724EA054621EA074C05FB07F406FB6F
:1016700007F70CFB06F105FB0CFC11EB074144EBF3
:1016800017444FEA124711EB0C4144EB1C4422EA89
:10169000074C05FB07F206FB07F70CFB06F605FBFC
:1016A0000CFC16EB074642EB174216EB0C4642EBDE
:1016B0001C456A1854F1000148BF7047B6195241E1
:1016C00041EB0101A3F10103704795F0000F37D002
:1016D0004FEA11424FEA144721EA024624EA074C36
:1016E00002FB07F106FB07F70CFB06F402FB0CFC00
:1016F00014EB074441EB17414FEA154714EB0C4438
:1017000041EB1C4125EA074C02FB07F506FB07F7F6
:101710000CFB06F602FB0CFC16EB074645EB1745E7
:1017200016EB0C4645EB1C42121951F1000148BF63
:101730007047B619524141EB0101A3F10103704713
:101740004FEA14454FEA114724EA054621EA074CBF
:1017500005FB07F106FB07F70CFB06F24FF000064E
:1017600005FB0CFC12EB074241EB174112EB0C425C
:1017700051EB1C4148BF7047921841EB0101A3F1A6
:101780000103704710B5052001F0A0FA084A00F0E7
:1017900002011070517000F001009070643202F884
:1017A000271F5070024A5C32D170107110BD0000CA
:1017B0009400002010B501F04CFF00F00DF800F08F
:1017C00067FA01F0CDFB01F0BFFBFF21BDE810403F
:1017D000002001F097BA000070B5084D0024A5F173
:1017E0000C060A2002F093F9295D305D01F08AFAB7
:1017F000641CE4B20C2CF4D370BD0000CC010020BA
:10180000FEE770B5044600200EE02578802306062A
:101810004FEA40604FEA106000D550401D4200D0B2
:1018200050405B08F3D1641C491EC9B2EDD270BDB3
:10183000704772B6FEE7000070B5284D2C2001F00D
:1018400045FA60F30F242D2001F040FA60F30704FD
:10185000A0B24FF4BF7148434FF47A7190FBF1F29C
:1018600090FBF1F042F21073A0F6E4405A4340427C
:1018700092FBF0F004F09EFB294604F0BDFA04F060
:101880002DFA01F083FF0022154B03F047FE0246BC
:101890000B464FF06040134903F084FD02460B46AF
:1018A0000020114903F03AFE4FF0C0420F4B04F004
:1018B0002BF900220E4B03F075FD03F041FD0D499D
:1018C000886104F05BFB0C4988640A49643181F843
:1018D0002600963188709E39887070BD00401C4685
:1018E0000068AA40E1796B3F0000F03F661271404A
:1018F0000000E03F94000020B81B00202DE9F047D5
:10190000322001F0E3F90446332001F0DFF940EA28
:101910000420154CDFF84480DFF84490114F04F1A7
:101920006405A4F11006B0F5004F02D94FF6FF711F
:10193000081A03F0CBFF42464B4603F0DBFF03F0EF
:10194000FFFC04F01BFB010A786404F8241F60709C
:10195000A974E874B171F071BDE8F087E17A14AE52
:1019600047E10040B81B0020F800002010B50C2013
:1019700001F0ACF904460D2001F0A8F90D4940EA48
:10198000042000B2CA68098950434FF47A7290FB70
:10199000F2F008440849074A00B208606432010ABC
:1019A0009170D07032329170D0706A3A9170D0706C
:1019B00010BD000094000020B81B002010B51E20B0
:1019C00001F084F904461F2001F080F90D4940EA36
:1019D000042000B2CA68098950434FF47A7290FB20
:1019E000F2F008440849074A00B248626432010A2A
:1019F0001175507564329170D070843A9170D070C6
:101A000010BD000094000020B81B002010B520205D
:101A100001F05CF90446212001F058F90D4940EA33
:101A2000042000B2CA68098950434FF47A7290FBCF
:101A3000F2F008440849074A00B288626432010A99
:101A40009175D075643211715071843A1171507171
:101A500010BD000094000020B81B002010B522200B
:101A600001F034F90446232001F030F90D4940EA31
:101A7000042000B2CA68098950434FF47A7290FB7F
:101A8000F2F008440849074A00B2C8626432010A09
:101A90001176507664329171D071843A9171D0711F
:101AA00010BD000094000020B81B002010B52820B5
:101AB00001F00CF90446292001F008F90D4940EA2B
:101AC000042000B2CA68098950434FF47A7290FB2F
:101AD000F2F008440849074A00B288636432010AF8
:101AE0009177D0776432117350737C3A9171D071D1
:101AF00010BD000094000020B81B002010B50E207F
:101B000001F0E4F804460F2001F0E0F80C4940EA47
:101B10000420CA68896850434FF47A7290FBF2F04F
:101B200008440849064A48606432010A117150713C
:101B30003232117150716A3A1171507110BD00004A
:101B400094000020B81B002010B5142001F0BEF84E
:101B50000446152001F0BAF80D4940EA042000B20D
:101B6000CA68098950434FF47A7290FBF2F0084436
:101B70000849074A00B208616432010A9172D072C2
:101B800032329172D072623A1171507110BD000000
:101B900094000020B81B002010B5162001F096F824
:101BA0000446172001F092F80D4940EA042000B2E3
:101BB000CA68098950434FF47A7290FBF2F00844E6
:101BC0000849074A00B248616432010A1173507330
:101BD000323211735073623A9171D07110BD0000AE
:101BE00094000020B81B002010B5182001F06EF8FA
:101BF0000446192001F06AF80D4940EA042000B2B9
:101C0000CA68098950434FF47A7290FBF2F0084495
:101C10000849074A00B288616432010A9173D0739F
:101C200032329173D0735A3A9170D07010BD000067
:101C300094000020B81B00202DE9F04104462A2022
:101C400001F044F805462B2001F040F80E4A40EA26
:101C500005210025D0689268830F8600A6FB010746
:101C600003FB017154434FF47A7206FB0511544390
:101C7000001941EBE4712B46FEF714FB0349C1F850
:101C8000C400BDE8F081000094000020B81B0020D3
:101C900010B5502001F01AF80446592001F016F84A
:101CA00004F00C01490001EB501004F09BF9074CC3
:101CB0006060512001F00AF8A0600549606804F0F6
:101CC00039F804F05BF9E06010BD000094000020DA
:101CD0000080B64370B5040003D094F8200010B122
:101CE00004E0012070BD204600F082F82068016801
:101CF00041F00101016000F0ABF90546052604E062
:101D000000F0A6F9401B0A2811D820684068C007D7
:101D1000F6D02068016821F00201016000F098F916
:101D200005460BE000F094F9401B0A2806D9606ACA
:101D300040F40030606284F82060D2E72068406898
:101D40008007EFD4207E0128206801683DD021F073
:101D500080010160607E01282068016838D021F090
:101D600040010160A07E01282068016833D021F085
:101D700020010160E07E0128206801682ED041F03A
:101D800010010160207F01282068016829D021F01E
:101D900008010160607F01282068016824D021F0DB
:101DA00004010160D4E902010843D4E9041211439B
:101DB00008436168491E08432168C86100206062C9
:101DC000012084F82000002070BD41F08001C0E7B0
:101DD00041F04001C5E741F02001CAE721F01001C0
:101DE000CFE741F00801D4E741F00401D9E7000052
:101DF00010B586B000210091019102910391006815
:101E00001349884222D11348C16941F00071C16170
:101E1000C16901F000710491816941F0040181619F
:101E200080690D4C00F0040004904FF400600090B5
:101E30006946204600F012F8A0140090022001909C
:101E4000032003906946204600F008F806B010BD54
:101E50000064004000100240000801402DE9F84FE6
:101E6000DFF8B8910024A9F1040B23460F2709F1EC
:101E7000040AABF1040EC9E00125A5402A40AA429C
:101E80007DD1674ED1F804C0ACEB0608B44532D022
:101E900014DCBCF1030F3AD009DCBCF1000F2AD0EE
:101EA000BCF1010F1CD0BCF1020F31D11DE0BCF11F
:101EB000110F17D0BCF1120F2AD119E0B8F5881F05
:101EC00019D006DCB8F5803F15D0B8F5801F1FD1BA
:101ED00011E0B8F5001F0ED0B8F5041F18D10AE0C4
:101EE000CB6815E0CB681B1D12E0CB6808330FE010
:101EF000CB680C330CE08B682BB1012B4FF008033F
:101F000003D0456104E0042302E0056100E0002302
:101F1000FF2A01D8064601E000F104064FEA8405D5
:101F200001D9A5F12005D6F8008007FA05FC28EABA
:101F30000C0803FA05F548EA0508C6F800804D6864
:101F4000ED0062D5374DAE6946F00106AE61AD6970
:101F500024F0030605F001050095334D06EB050C52
:101F6000DCF80850A607360F07FA06F825EA080538
:101F7000DFF8B880404503D14FF0000817E044E097
:101F8000DFF8AC80404502D14FF001080FE0DFF8E8
:101F9000A480404502D14FF0020808E0DFF89880A5
:101FA000404502D14FF0030801E04FF0040808FA61
:101FB00006F848EA0508CCF808804D68D9F80060B2
:101FC000ED024D4601D5164300E096432E604D6864
:101FD000DAF80060AD02554601D5164300E096439D
:101FE0002E604D68DBF80060AD035D4601D51643F9
:101FF00000E096432E604D68DEF80060ED03754604
:1020000001D5164300E096432E60641C0D682A46F5
:10201000E5407FF431AFBDE8F88F000008040140CF
:1020200000001110001002400000014000080140B3
:10203000000C01400010014000140140806808407D
:1020400000D0012070470AB1016170470904FBE725
:102050000148806870470000040000200248816841
:10206000027811448160704704000020074810B5D1
:10207000016841F010010160032000F0A7F80F2073
:1020800000F006F800F050F8002010BD00200240DB
:1020900030B505461F4887B0C16941F00401C161F0
:1020A000C06906A900F00400009001A800F036F90C
:1020B0000498B0B100F052F940001749174AB0FB3C
:1020C000F1F11748491E0260416040F2E7320021F9
:1020D000C0E903218160816100F018FB040003D096
:1020E00015E000F03BF9E8E70D4800F03DFB040087
:1020F0000DD11E2000F03CF8102D07D200222946F9
:102100001E2000F043F80748056000E0012407B0F6
:10211000204630BD0010024040420F000008004041
:102120009C020020080000200F4808B5816941F09A
:1021300001018161816901F001010091C16941F0F2
:102140008051C161C069002200F0805000900F21D1
:10215000901E00F01BF80548416821F0E06141F055
:102160000071416008BD0000001002400000014005
:10217000002809DB00F01F02012191404009800086
:1021800000F1E020C0F8001170470000F0B40E4BE1
:102190001B680C46C3F30223C3F10705042D00D9C5
:1021A0000425191D072901D2002300E0DB1E0126AA
:1021B00006FA05F1491E214099409E40761E1640C0
:1021C0003143F0BC01F065BA0CED00E0064900F0C7
:1021D000070208684FF6FF03184040EA0220034A4E
:1021E00010430860704700000CED00E00000FA05A5
:1021F0002DE9F0470F46050061D0434E306800F0EE
:102200000700B84209D2306820F007003843306038
:10221000306800F00700B84251D128683B4C810774
:1022200012D5400703D5606840F4E060606028780C
:10223000000703D5606840F4605060606068A9687A
:1022400020F0F000084360602878C00728D0686854
:10225000012810D02168022810D0890700292EDA21
:10226000616821F0030101436160FFF7F1FE8046E0
:1022700041F288390DE021688903EFE78901EDE734
:10228000FFF7E6FEA0EB0801494502D90320BDE8AF
:10229000F0876068696800F00C00B0EB810FEFD147
:1022A000306800F00700B8420BD9306820F0070012
:1022B00038433060306800F00700B84201D0012098
:1022C000E5E72878400705D56068E96820F4E06014
:1022D000084360602878000706D56068296920F403
:1022E000605040EAC100606000F058F86168084A38
:1022F000C1F30311515CC8400649086006480068F4
:10230000FFF7C6FE0020C2E7002002400010024096
:10231000B662000810000020080000200F220260B2
:102320000C4A536803F003034360536803F0F0035F
:102330008360536803F4E063C36052684FF4E06362
:1023400003EAD20202610448006800F00700086056
:102350007047000000100240002002400448054978
:1023600000684968044AC1F30221515CC8407047C3
:102370001000002000100240C66200080448054911
:1023800000684968044AC1F3C221515CC8407047E3
:102390001000002000100240C66200080E4A51687A
:1023A0000E4801F00C03042B11D0082B0FD10C4860
:1023B000C1F38343C903C05C0AD55168084AC1F31D
:1023C0004041921E515C054A5043B0FBF1F070470A
:1023D00004494843704700000010024000127A0090
:1023E000A662000800093D002DE9F84F040070D0F6
:1023F0002078C04DC00749D06868C0F3810001282B
:1024000007D06868C0F38100022809D16868C0035A
:1024100006D52868800339D560680028E7D035E004
:102420006068B0F5803F0BD010B1B0F5A02F11D08F
:10243000286820F480302860286820F4802002E09A
:10244000286840F480302860606890B1FFF700FE93
:1024500006460AE0286840F480202860F0E700BFC4
:10246000FFF7F6FD801B642873D828688003F7D532
:102470000CE0FFF7EDFD064605E000BFFFF7E8FDC5
:10248000801B6428F0D828688003F7D420789A4EFF
:1024900080074FF001094FF0000839D5686810F047
:1024A0000C0F07D06868C0F38100022809D1686862
:1024B000C00306D42868800714D52069012808D1F4
:1024C00010E02069B0B1C6F80090FFF7C1FD0746E3
:1024D00005E00AE1FFF7BCFDC01B0228C4D828684C
:1024E0008007F7D52868616920F0F80040EAC1004C
:1024F00028600DE0C6F80080FFF7AAFD074604E05B
:10250000FFF7A6FDC01B022823D828688007F7D450
:10251000207800072CD57948A169D9B1C0F800907E
:10252000FFF796FD074604E0FFF792FDC01B022867
:102530000FD8686A8007F7D571484FF4FA510068E0
:10254000B0FBF1F0009000BF0098411E0091FAD25C
:102550000EE080E0C0F80080FFF77AFD074604E057
:10256000FFF776FDC01B022875D8686A8007F7D48C
:102570002078400760D5E8690027C00008D4E869E2
:1025800040F08050E861E869012700F08050009039
:102590005C480168C90513D40168834641F4807121
:1025A0000160FFF755FD824606E000BFFFF750FDD2
:1025B000A0EB0A0064284ED8DBF80000C005F5D572
:1025C000E06801280AD008B1052813D0286A20F055
:1025D00001002862286A20F0040002E0286A40F026
:1025E00001002862E06841F2883B98B1FFF730FDB6
:1025F00082460BE0286A40F004002862EEE700BF44
:10260000FFF726FDA0EB0A0159455AD8286A800732
:10261000F6D50CE0FFF71CFD824605E0FFF718FD3C
:10262000A0EB0A0159454CD8286A8007F6D41FB19F
:10263000E86920F08050E861E06988B36968C1F317
:102640008101022944D00228C6F8608004D0FFF737
:10265000FFFC044638E034E0FFF7FAFC074604E0EC
:10266000FFF7F6FCC01B02282BD828688001F7D49E
:10267000206AB0F5803F05D16868A16820F4003079
:1026800008436860D4E908010843696821F47411BB
:1026900008436860C6F86090FFF7DAFC044606E07D
:1026A00025E000BFFFF7D4FC001B022809D82868EA
:1026B0008001F7D51BE000BFFFF7CAFC001B022812
:1026C00002D90320BDE8F88F28688001F4D40EE019
:1026D0000128F7D06868226A00F48031914204D161
:1026E000616A00F47010884201D00120EAE70020FE
:1026F000E8E700000010024000004242800442422D
:1027000010000020007000407047704710B50400B2
:1027100003D094F83D0010B107E0012010BD002067
:1027200084F83C00204600F01EF8022084F83D00AA
:10273000211D206800F0B4FC012084F8460084F8D4
:102740003E0084F83F0084F8400084F8410084F89B
:10275000420084F8430084F8440084F8450084F87B
:102760003D00002010BD704790F83D10012901D0B8
:1027700001207047022180F83D100168CA6842F0CC
:102780000102CA6000680B49884208D0B0F1804F4E
:1027900005D00949884202D00849884204D181689D
:1027A00001F00701062903D0016841F00101016031
:1027B00000207047002C0140000400400008004049
:1027C00070472DE9F04104460068C66805694FF07E
:1027D0000007A90713D5B10711D5F91E0161012022
:1027E0002077206880698007204602D0FFF7E8FF45
:1027F00004E000F07EF8204600F07CF827776807B8
:1028000016D5700714D521686FF004000861022006
:1028100020772068806910F4407F204602D0FFF7BF
:10282000CFFF04E000F065F8204600F063F827775A
:10283000280715D5300713D521686FF00800086107
:10284000042020772068C0698007204602D0FFF767
:10285000B7FF04E000F04DF8204600F04BF8277772
:10286000E80616D5F00614D521686FF0100008614F
:10287000082020772068C06910F4407F204602D0ED
:10288000FFF79EFF04E000F034F8204600F032F835
:102890002777E80708D0F00706D021686FF001001D
:1028A0000861204600F028F8280608D5300606D52D
:1028B00021686FF0800008612046FFF725FF680659
:1028C00008D5700606D521686FF0400008612046E3
:1028D00000F01CF8A8060AD5B00608D521686FF0EC
:1028E000200008612046BDE8F041FFF70EBFBDE8BB
:1028F000F08170477047000000680349884201D1A9
:10290000FFF7ACBB7047000000080040704770B58F
:10291000040004D094F84100002510B106E0012025
:1029200070BD84F84050204600F024F8242084F83C
:1029300041002068C16821F40051C160204600F0C8
:10294000D7FD2068016921F4904101612068416947
:1029500021F02A0141612068C16841F40051C16041
:102960006564202084F8410084F8420065630020FB
:1029700070BD00002DE9F04385B0002506460095A6
:1029800001950295039500682849294C294F4FF07D
:1029900002084FF00309884220D1A06940F480402A
:1029A000A061A06900F480400490A06940F0040098
:1029B000A061A069CDF80C9000F0040004904815C7
:1029C000CDE9000869463846FFF748FA2015CDE9F9
:1029D0000005694638460295FFF740FA1649306807
:1029E000884220D1E06940F40030E061E06900F401
:1029F00000300490A06940F00400A061A06969461D
:102A000000F0040004900420CDE90008CDF80C90FB
:102A10003846FFF723FA0820CDE900056946384615
:102A20000295FFF71BFA05B0BDE8F08300380140BE
:102A30000010024000080140004400402DE9F84326
:102A4000044690F84100984616460D46202802D0CC
:102A50000220BDE8F88385B17EB1002060642120AA
:102A600084F84100FFF7F4FAA6848146E684A06862
:102A70002027B0F5805F02D003E00120E9E720695C
:102A800010B12E4600250EE000260CE080212046E5
:102A900000F08AFDA8B9C6B116F8010B216848609C
:102AA000E08C401EE084E08C4B464FF00002CDF8F5
:102AB00000800028EAD14FF04001204600F074FD6C
:102AC00040B184F841700320C3E735F8020BC0F32E
:102AD0000800E3E784F841700020BAE7FEE710B58C
:102AE00000F007F8FEF766FEBDE81040002001F098
:102AF00033BE70472DE9F0470122DFF85C805602B3
:102B00000825002431464046FFF79DFAB1466F0183
:102B1000464616E06006040E002239463046FFF7AE
:102B200092FA00F0CDF8012239463046FFF78BFAD1
:102B300000F0C6F849463046FFF780FA08B144F085
:102B400001046D1EEDB2E5D2002239463046FFF792
:102B50007AFA2046BDE8F087000C01402DE9F041EB
:102B6000082405464FF400786601134F18E000BFB3
:102B7000FFF769FA00F0A4F8280601D5012200E069
:102B8000002241463846FFF75EFA6806050E00F05F
:102B900097F8012231463846FFF755FA00F090F8D1
:102BA000641EE4B24FF0000231463846E0D2BDE880
:102BB000F041FFF748BA0000000C014070B5012257
:102BC000144D540221462846FFF73DFA0122110216
:102BD0002846FFF738FA00F073F821462846FFF739
:102BE0002DFA00280CD0002221462846FFF72BFAA8
:102BF00000F066F821462846FFF720FA08B10020C9
:102C000070BD002221462846FFF71DFA00F058F853
:102C1000012070BD000C014070B5114D4FF480745F
:102C2000002221462846FFF70EFA00F049F8660018
:102C3000002231462846FFF706FA00F041F801224B
:102C400021462846FFF7FFF900F03AF80122314605
:102C50002846FFF7F8F9BDE8704000F031B80000F1
:102C6000000C014070B5154C4FF4807500222946C8
:102C70002046FFF7E8F900F023F80122560231461A
:102C80002046FFF7E0F900F01BF801222946204614
:102C9000FFF7D9F900F014F831462046FFF7CEF9D6
:102CA00000284FF000022946204603D0FFF7CBF959
:102CB000002070BDFFF7C7F9012070BD000C014076
:102CC0003220401E10F0FF00FBD1704710B50446C3
:102CD000FFF774FF1020FFF741FFFFF7C3FFE0B2DB
:102CE000FFF73CFFFFF7BEFFFFF768FF1120FFF77C
:102CF00035FFFFF7B7FFFFF7FDFE0446FFF78CFF38
:102D0000204610BD08B510228DF800208DF8010076
:102D10008DF80210072203216846FEF772FD8DF838
:102D20000300FFF74BFF9DF80000FFF717FFFFF7C9
:102D300099FF9DF80100FFF711FFFFF793FF9DF842
:102D40000200FFF70BFFFFF78DFF9DF80300FFF771
:102D500005FFFFF787FFFFF75FFF0A2000F0D7FEB0
:102D600008BD000010B50B4A00210B4800F00AFF17
:102D70000A4C084A002120602432094800F002FF72
:102D8000044A606048320021064800F0FBFEA06063
:102D900010BD0000D0620008DF2A0008D801002022
:102DA000D52F00081931000808B1012200E00022E7
:102DB0004FF400410148FFF746B900000008014008
:102DC0000F4810B50D4901600421416000214FF406
:102DD00040228160C0E9031292004261017641768F
:102DE0008176C17601774177FEF774FF002803D022
:102DF000BDE81040FEF71DBD10BD0000006400409E
:102E0000E401002010B5FFF7ADFF044A002104489B
:102E100000F0B8FE0349086010BD000080620008A1
:102E200013300008000000202DE9F04186B0002496
:102E300025480094019402940394816941F01001A3
:102E40008161816901F010010491816941F02001E3
:102E50008161816901F020010491816941F00401DF
:102E60008161816901F004010491816941F00801E7
:102E700081618069154F00F008004FF4014504900E
:102E8000002229463846FFF7DEF8DFF844804FF489
:102E90004076002231464046FFF7D5F80120CDE9C3
:102EA0000050022569463846CDE90245FEF7D6FFB7
:102EB00001AA1120009682E8310069464046FEF7DB
:102EC000CDFF06B0BDE8F0810010024000080140CF
:102ED000000C01400C4810B50A4901604FF4E13183
:102EE0004160002181600C22C160C0E9041281614F
:102EF000C161FFF70CFD002803D0BDE81040FEF7CC
:102F000098BC10BD003801400C0200200C4810B5E0
:102F10000A4901604FF4E1314160002181600C22D7
:102F2000C160C0E904128161C161FFF7F0FC0028B3
:102F300003D0BDE81040FEF77CBC10BD004400404B
:102F400054020020FEE7FEE710B5FF210620FFF740
:102F5000D9FEFF21BDE810400720FFF7D3BE0000D7
:102F60002DE9F0411948184D846841F23010001BDA
:102F700003F020F8294602F03FFF02F0AFFE144EA6
:102F80000022334602F00EFA02F05CFCC0F3071791
:102F9000C4F5166003F00EF8294602F02DFF02F08A
:102FA0009DFE0022334602F0FDF902F04BFCC0F317
:102FB000071439460920FFF7A5FE2146BDE8F04178
:102FC0000A20FFF79FBE00002506C13E94000020A6
:102FD0000000E03FFEF7CAFCFEF790FDFEF7B4FDEF
:102FE000FEF7DAFDFEF700FEFEF7E8FCFEF70EFD49
:102FF000FEF734FDFEF75AFD0920FEF71DFEFEF731
:103000001BFCFEF77BFCFEF7BDFB642000F07FFDA0
:10301000E0E7012000F07BFDFBE710B54FF0E0207A
:10302000006901F0C1FF012803D0BDE8104001F0A4
:10303000EFBC10BD30B58FB028216846FDF7C3FA4C
:1030400014210AA8FDF7BFFA01210804CDE90010F8
:103050000024029402250491CDE907504FF4E010BA
:1030600009906846FFF7C0F908B172B6FEE70F2075
:10307000CDE90A054FF48060CDE90C4002210AA891
:103080000E94FFF7B5F8002801D072B6FEE70FB036
:1030900030BD70470148FFF794BB00009C02002040
:1030A000F0B50268194B1A4C1A4D4FF08047984200
:1030B00005D0B84203D0A04201D0A84203D122F0EB
:1030C00070064A683243984205D0B84203D0A04205
:1030D00001D0A84203D122F44074CA6822434C694B
:1030E00022F08002224302608A68C2620A68826219
:1030F000984201D109690163012141610169C90750
:1031000003D0016921F001010161F0BD002C0140F3
:10311000000400400008004090B0674D674E342125
:1031200003A8FDF750FA0024285D3060022000F06B
:10313000EEFC641C322CF7DB53221421604800F0B3
:103140006DFA532214215F4800F068FA53221421CB
:103150005D4800F063FA5DA000F06AFA5BA000F041
:1031600067FA5DA000F064FA5EA05F4C00905FA279
:1031700061A103A82368FDF7B9F803A800F058FA85
:1031800058A0009063A266A103A86368FDF7AEF89B
:1031900003A800F04DFA53A0009068A26AA103A80A
:1031A0002369FDF7A3F803A800F042FA4DA00090B0
:1031B0006CA26FA103A86369FDF798F803A800F05B
:1031C00037FA48A0009071A273A103A8A369FDF784
:1031D0008DF803A800F02CFA42A0009075A278A107
:1031E00003A8636AFDF782F803A800F021FA37A06C
:1031F00000F01EFA3BA0009078A23FA103A8A36AAA
:10320000FDF774F803A800F013FA36A0009076A238
:1032100043A103A8E36AFDF769F803A800F008FAE0
:1032200030A0009073A248A103A8A36BFDF75EF83D
:1032300003A800F0FDF92BA0009071A24CA103A8F7
:10324000D4F8C430FDF752F803A800F0F1F96EA0ED
:1032500000906EA250A103A8236CFDF747F803A8C5
:1032600000F0E6F96C48006802F038FD6BA28DE8CA
:1032700007006BA26DA103A8FDF738F803A800F0C2
:10328000D7F912A000F0D4F970A0009070A273A139
:1032900003A8636CFDF72AF803A800F0C9F976A229
:1032A00079A103A8FDF722F803A800F0C1F9C8200E
:1032B00000F02DFC33E70000F80000200438014046
:1032C0002A0100205C0100208E010020434C52287E
:1032D0003631293B0D0A00004449522831293B0D63
:1032E0000A0000006D560000B81B0020B5DAD2BB02
:1032F000BDDAB5E7D1B93A00444356313628302C0F
:10330000302C27257325642573272C33293B0D0A80
:1033100000000000B5DAB6FEBDDAB5E7D1B93A0073
:10332000444356313628302C32302C2725732564FF
:103330002573272C33293B0D0A000000B5DAC8FDA0
:10334000BDDAB5E7D1B93A00444356313628302CBE
:1033500034302C27257325642573272C33293B0D06
:103360000A000000B5DACBC4BDDAB5E7D1B93A003E
:10337000444356313628302C36302C2725732564AB
:103380002573272C33293B0D0A000000B5DACEE562
:10339000BDDAB5E7D1B93A00444356313628302C6E
:1033A00038302C27257325642573272C33293B0DB2
:1033B0000A000000B5DAC1F9BDDAB5E7D1B93A00C3
:1033C000444356313628302C3130302C2725732594
:1033D000642573272C33293B0D0A0000B5DAC6DFBC
:1033E000BDDAB5E7D1B93A00B5DAB0CBBDDAB5E7A9
:1033F000D1B93A00B5DABEC5BDDAB5E7D1B93A0000
:10340000D7DCB5E7D1B93A0025000000B5E7B3D85D
:10341000534F43CEAA3A0000AC000020A1E60000C2
:10342000B5E7B3D8CEC2B6C8CEAA3A0044435631A7
:103430003628302C3130302C272573252E32662546
:1034400073272C33293B0D0A000000006D4100005A
:10345000B5B1C7B0B5E7C1F7CEAA3A00444356317B
:103460003628302C30302C27257325642573272CE3
:1034700033293B0D0A00000048574C4C4F20574F52
:10348000524C4420A3A10000444356313628302C2E
:1034900032302C272573272C33293B0D0A000000DE
:1034A00001680C3151E8002F22F4907241E80023AA
:1034B000002BF5D10168143151E8002F22F00102F0
:1034C00041E80023002BF5D1016B012909D10168E6
:1034D0000C3151E8002F22F0100241E80023002BAC
:1034E000F5D1202180F842100021016370470000CF
:1034F00070B5044600680169E26821F44051114347
:1035000001612169A0680843616908432168CA68AC
:1035100041F20C639A430243CA6020684169A26980
:1035200021F44071114341611E492068884202D153
:10353000FEF724FF01E0FEF711FF00EBC00101EBF5
:103540000012606864218000B2FBF0F3B3FBF1F37A
:103550006FF018067343B2FBF0F5B2FBF0F605EB23
:103560008305322303EB0515B5FBF1F5B6FBF1F648
:1035700005F0F00505EB0615B2FBF0F6B2FBF0F036
:10358000B0FBF1F06FF01802504306EB800003EB44
:103590000010B0FBF1F0216800F00F0028448860B3
:1035A00070BD0000003801402DE9F84398461746E9
:1035B0000D460446089E24E0701C22D0FEF748FD0C
:1035C000A0EB0800B0421AD8CEB12068C168490704
:1035D00017D5802D15D0402D13D00168C943090798
:1035E0000FD401680025406800902046FFF758FF7F
:1035F0000820606484F840500120BDE8F88303206F
:10360000FBE72068006835EA000004D00020B842DB
:10361000D2D00020F1E70120F9E700000A46014678
:103620004FF0FF330148FFF709BA000054020020B1
:1036300010B50446FCF75BFF214682B2BDE810409E
:103640004FF0FF330148FFF7F9B900000C020020EA
:10365000FEE710B50120FFF7A7FB642000F057FA42
:10366000BDE810400020FFF79FBB490050EAC12091
:1036700018BF04204A0D18BF40F0010040F2FF724D
:10368000B2EB515F08BF40F00200012808BF0520DF
:1036900070470907090E002804DB00F1E02080F8DC
:1036A0000014704700F00F0000F1E02080F8141DB6
:1036B00070472DE9F0414F1E00EBC7010446D1E9E8
:1036C000000115461E4637F006020DD02A46334645
:1036D00002F010F97F1E04EBC703D3E9002301F0C9
:1036E00061FE37F00602F1D1022F25D0042F13D04E
:1036F000062F18BFBDE8F0812A46334602F0FAF8DB
:10370000D4E90A2301F04EFE2A46334602F0F2F8CD
:10371000D4E9082301F046FE2A46334602F0EAF8CF
:10372000D4E9062301F03EFE2A46334602F0E2F8D1
:10373000D4E9042301F036FE2A46334602F0DAF8D3
:10374000D4E9022301F02EFE2A46334602F0D2F8D5
:10375000D4E90023BDE8F04101F024BE0022134665
:103760001046014901F0DABE0000F03F012202F0EC
:1037700040BD002213461046114601F0CFBE30383E
:103780000A2801D201207047002070472DE9F04D32
:10379000C84A002490B0914205DA21F000439342D8
:1037A00001D805D120B110B0BDE8F04DFFF7DEBF64
:1037B000B1F5801F1BDA53EA000209D0002911DAA3
:1037C0000120FCF7A6FF10B0BDE8F04DFFF7D1BF18
:1037D0000220FCF79EFFFFF7C1FF10B081F000410F
:1037E000BDE8F08D6FF03504362202F002FD04EBE7
:1037F0002152C1F31308B049A2F2FF33414401F44E
:10380000801282F07F6103EB225281F040510092DE
:1038100041EA08010022A94B02F076F9044608F1BA
:103820000200A74EC0F313000D467E44032867D262
:10383000D6E90023204601F0C9FF1ED100980028D8
:1038400002BFD6E9000110B0BDE8F08D02F027F804
:1038500007460C469B4A9C4B02F04CF806460D4628
:103860009A4A9B4B3846214602F044F810B0324643
:103870002B46BDE8F04D01F095BD4FF05532954B0C
:103880002046294602F036F80022934B02F030F928
:1038900006460F4622462B461046194602F02AF8E5
:1038A00032463B4602F026F8064600980F46F0B135
:1038B00001F0F5FF80468A46824A834B02F01AF8EF
:1038C00032463B4602F014F922462B4602F01CF920
:1038D00005460C467D4A7E4B4046514602F00AF8AA
:1038E00010B02A462346BDE8F04D02F00DB90B4654
:1038F00010B0324620462946BDE8F04D02F004B92A
:1039000000224FF08043204601F04CFD02460B465A
:103910002046294601F002FE06460F46009801F0B7
:10392000BEFFCDE9040132463B461046394601F060
:10393000E1FF0C9069480C9A4044019009910B46B4
:10394000104601F0D7FF8246024665488B46C8F113
:1039500051080B4608F5D72803217844FFF7A9FE44
:1039600052465B4601F0C6FF0A905E480D915246F2
:103970005B4604217844FFF79CFE099B0C9A01F0FA
:10398000B9FF844601980D9B40EA080860460A9AF0
:1039900001F008FD83460891B8F1000F4EDD4FF0AD
:1039A000FF322046294602F024FC22462B4601F035
:1039B000A1FF804600988A4660B3DDE90401414AD0
:1039C000414B01F097FF099100905A4640465146FD
:1039D000089B01F0E7FC32463B4601F08BFF099B58
:1039E000009A01F0DFFC4246534602F081F822467D
:1039F0002B4602F089F804460D46DDE90401334AFE
:103A0000334B01F077FF10B022462B46BDE8F04D56
:103A100002F07AB85A464046089B01F0C3FC324691
:103A20003B4601F067FF4246534602F061F810B092
:103A300022462B46BDE8F04D02F05AB8009840B33C
:103A4000DDE904011F4A204B01F054FF80468A46FD
:103A50005A4620462946089B02F056F832463B4615
:103A600001F048FF4246534602F04EF822462B46EC
:103A700002F04AF804460D46DDE90401134A144BEE
:103A800001F038FF10B022462B46BDE8F04D02F0A1
:103A90003BB80B465A462046294602F035F83246D6
:103AA0003B4601F027FF10B022462B46BDE8F04D03
:103AB00002F01EB80000F07F645F09000000F03FD4
:103AC0004A2B0000763C7935EF39EA3D0000E0FEF4
:103AD000422EE63F5555D53F0000E03F86EBF9FF0B
:103AE000E2290000E0290000FEF7C0FAFFF7A2FA81
:103AF000FFF79AF9FFF764F9FFF7ECF9FFF706FA19
:103B000000F012F8FFF77EF900F020F8FEE710B59C
:103B1000EFF3058111B16FF0050403E0002408B153
:103B200000F0F4FD204610BDEFF3058010B16FF0FA
:103B3000050070470448016811B14FF0FF3070472D
:103B400001210160002070476400002010B5EFF3F0
:103B5000058010B16FF0050010BD0848016801290B
:103B600002D04FF0FF3010BD054A002182F8141D2D
:103B70000221016000F07AFE002010BD64000020E8
:103B80000BE000E02DE9FF414FEA01034FF0000593
:103B9000EFF30581039549BB40B38027182100242A
:103BA0004AB3166806B1344696691EB13146761E90
:103BB000382E02D21679F60703D0002004B0BDE8F3
:103BC000F081566906B1B708D2F808C0BCF1000F01
:103BD0000DD0D5685C2D18D312693AB136B18DE895
:103BE00006103A46214601F0B4F903900DE0D6687C
:103BF0005EB912694AB903AACDE90012BAB22146E8
:103C000001F07AF9012800D003950398D6E7000067
:103C10002DE9F041134C0F460546E6682068001D6B
:103C200000F040FC681C07D137B12168BDE8F041C5
:103C30000D48091D00F086BC20683544B54245603A
:103C4000216805D2A06BBDE8F041091D00F062BCFF
:103C5000606B091D00F05EFCA06A854200D2A5627F
:103C6000BDE8F08114000020D40700202DE9F041C8
:103C7000054600F073FC2D4CA068401CA060206835
:103C80002B4F10B1606930B32BE02560A06801288C
:103C900027D1002606EB860007EB800000F02CFC05
:103CA000761C382EF6D3234800F026FC2148143029
:103CB00000F022FC1F48283000F01EFC1D483C305C
:103CC00000F01AFC1B48503000F016FC19486063E5
:103CD0001430A06305E02068E96AC06A884200D811
:103CE0002560606A401C60626864E86A21698842F5
:103CF00000D9206100EB800007EB8000291D00F057
:103D000021FC00F04BFC606900280CD02068E96AB7
:103D1000C06A884207D208494FF080500860BFF35C
:103D20004F8FBFF36F8FBDE8F081000014000020BB
:103D3000240300208407002004ED00E038B500F0E3
:103D40000DFC104C2068C8B90F4800F0D5FB0E4898
:103D5000143000F0D1FB0C48E060143020610A4BB5
:103D60000020F03B009003F1500210210A2000F0E7
:103D700065FE206010B105A100F092FCBDE838405E
:103D800000F00CBC50000020D8080020546D725187
:103D90000000000030B4026C0B46002A0BD0C16852
:103DA0001144C1608468A14201D30168C16030BC84
:103DB0001846FCF7BBBB30BC70472DE9F041856B62
:103DC000174604460026026C82B1C7B1E068FCF7D2
:103DD000ADFBE168206C091AE1602268914202D2D1
:103DE000A168081AE060022F16D017E02068A8B971
:103DF000A06801F051F906460020A0600EE060685E
:103E0000FCF794FB216C606808446060A1688842FC
:103E100004D32068606001E005B16D1E6D1CA563D0
:103E20003046BDE8F08110B5044690F8590058B10D
:103E300001280CD002280FD0502080F31188BFF346
:103E40004F8FBFF36F8FFEE7206B00F0BBFB204668
:103E5000BDE8104000F0B6BB10BD000010484FF4A4
:103E60004061420706D0C01D0D4920F00700411AED
:103E7000C1F540610B4A00230144C2E9000308393F
:103E8000183A21F0070111604B600B600B1AC0E972
:103E9000001393604FF00040536050617047000082
:103EA000B80F002080000020144E154CA6F29C474D
:103EB0004FF08058DFF84C9012E000BF00F04EFB4E
:103EC000F068C568281D00F0EDFAA068401EA060EB
:103ED0006068401E606000F061FB2846FFF7A3FFAA
:103EE00060680028EAD138680128F9D9C9F800804B
:103EF000BFF34F8FBFF36F8FF2E70000C0070020C2
:103F00001400002004ED00E070B51D46049C51B182
:103F1000C4F80020C4E90F010121204600F0C2FDD1
:103F200084F84C5070BD2460F4E700002DE9F05F88
:103F30008846DDE90B941546834691009A460A9E11
:103F4000A522206BFCF737FB6FF00301206B01EB20
:103F50008501084420F00707780707D0502080F338
:103F60001188BFF34F8FBFF36F8FFEE70025B8F1C5
:103F7000000F0FD05FF00000221818F8001082F830
:103F8000341018F8001011B1401C1028F4D384F834
:103F9000435001E084F83450382E00D33726E662CF
:103FA000C4E91365201D00F0B2FA04F1180000F016
:103FB000AEFA2461C6F138006462A061656584F8D8
:103FC000585052465946384600F05AFA2060B9F126
:103FD000000F01D0C9F80040BDE8F09F30B511498D
:103FE00000E011460A688242FBD34B685C188442A9
:103FF00003D1406818444860084643681C1894423E
:1040000009D1084C183C2468A24209D052681A44CD
:1040100042600A6812680260814200D0086030BDC8
:104020000460F9E78000002070B5002441600B4D6A
:104030000061914206D8D11A8269914206D2011DCF
:10404000286907E09A4203D2994201D3012403E090
:10405000011DE86800F05EFA204670BD50000020A7
:1040600010B5044600F07AFAA06B28B15FF00004A6
:1040700000F094FA204610BD0124F9E730B589B06C
:104080003C4D6EE00498002806DADDE90601059A49
:1040900090470498002864DB069C606910B1201DDD
:1040A00000F000FA03A800F0D7F8024604980A28A6
:1040B00057D2DFE800F00505052D334A05052D33FD
:1040C00094F8280040F0010084F828000599A069C0
:1040D000059B01442046FFF7A7FF68B3216A2046ED
:1040E000884794F8280040073BD5002000900598A9
:1040F000A169002342181946204601F0D7F8D8B923
:10410000502080F31188BFF34F8FBFF36F8FFEE70E
:1041100014F8280F20F00100207022E094F8280005
:1041200040F0010084F828000598A06128B18118AA
:1041300013462046FFF778FF13E0502080F31188E4
:10414000BFF34F8FBFF36F8FFEE794F8280081070E
:1041500003D4204600F036FA03E020F0010084F892
:104160002800002204A9286800F0F0FD002889D169
:1041700009B030BD500000202DE9FC410F46054636
:1041800000F0B8FB01A800F067F80446019818B1E8
:1041900000F0FAFFBDE8FC81254EAFB13069006840
:1041A000D0B30027291B3A46306800F08DFA00F0A2
:1041B000EBFF0028EED11F494FF080500860BFF39D
:1041C0004F8FBFF36F8FE5E7A542EBD800F0DCFF20
:1041D000F0682746C068C468201D00F063F994F8B1
:1041E0002800410719D5A0692B4641193A462046B7
:1041F000FFF71AFFA8B100200346014600902A46A7
:10420000204601F053F860B9502080F31188BFF3C5
:104210004F8FBFF36F8FFEE707E020F0010084F8B7
:104220002800216A20468847B4E70127BAE7000042
:104230005000002004ED00E00648416B096829B1F8
:10424000416BC968C9684968816270474FF0FF31A6
:10425000FAE700001400002070B5054600F0B2FE39
:10426000064E0446B068844203D200F009F80120EB
:1042700000E0002028602046B46070BD500000209F
:10428000F8B5194D20E0C068C4680668201D00F02C
:1042900009F9216A2046884794F82800400713D579
:1042A000A0693044B04206D924616060211DE868ED
:1042B00000F030F908E00020034601460090324645
:1042C000204600F0F3FF38B1E86801680029DAD130
:1042D0002969C5E90310F8BD502080F31188BFF3A8
:1042E0004F8FBFF36F8FFEE75000002008484068F3
:1042F000401C4FF0500080F3118804D0BFF34F8F63
:10430000BFF36F8FFEE7BFF34F8FBFF36F8FFEE7F3
:1043100088000020074CE068016841B1C0680021B6
:10432000D0F80000FFF728FFFFF7A8FEF3E7012110
:104330000020F7E7500000202DE9F041044600F08E
:104340000DF994F9455004F1240609E0606A48B17A
:10435000304600F0E1FE08B100F04EFA6D1E6DB27D
:10436000002DF3DC4FF0FF3684F8456000F016F9BD
:1043700000F0F4F894F9445004F1100709E02069C2
:1043800048B1384600F0C8FE08B100F035FA6D1E9D
:104390006DB2002DF3DC84F84460BDE8F04100F01C
:1043A000FDB800002DE9F0410546002700F0A2FA13
:1043B000324E306808B9FFF751FD706905424ED1A1
:1043C000C5B3083568070ED005F00700C0F1080036
:1043D0000544680707D0502080F31188BFF34F8F42
:1043E000BFF36F8FFEE72DB37068854237D823483F
:1043F000183001460C6801E020460C466168A9426D
:1044000002D221680029F7D131688C4227D0076891
:104410002168016060680837411B10290FD96019B5
:10442000420708D0502080F31188BFF34F8FBFF3AD
:104430006F8FFEE713E041606560FFF7CFFD6168B5
:104440007068401A7060B268904200D2B0607069C3
:1044500001430020C4E90001F068401CF06000F056
:1044600093FE780707D0502080F31188BFF34F8F59
:10447000BFF36F8FFEE73846BDE8F081680000208B
:1044800010B5031F4FF080741C601B1F21F0010149
:104490001960191F024B0B60143940380A6010BDB7
:1044A000ED420008D0E9013201699A60D0E90123A8
:1044B0005A604A68824201D182684A6000220261E1
:1044C0000868401E0860086870470000034B0360DE
:1044D00003F15C0008608020106070470009002034
:1044E000044B036003F15C0008604FF480701060BF
:1044F000704700005C0B002000F108014FF0FF3214
:10450000C0E90112C1600161002101607047002112
:104510000161704730B50B685A1C02D000F10802E7
:1045200002E0026904E02246546825689D42FAD9F7
:1045300053684B6099608A60516008610168491C4A
:10454000016030BD42684A6093688B60936859602F
:10455000916008610168491C01607047502080F338
:104560001188BFF34F8FBFF36F8F0A494868401C13
:10457000486001280CD10848006810F0FF0F07D0F0
:10458000502080F31188BFF34F8FBFF36F8FFEE78A
:10459000704700008800002004ED00E008494868EA
:1045A00028B1401E486001D180F311887047502027
:1045B00080F31188BFF34F8FBFF36F8FFEE70000CA
:1045C0008800002070B500282AD0164DA0F10804FC
:1045D00060686969084207D1502080F31188BFF3F1
:1045E0004F8FBFF36F8FFEE722683AB1502080F300
:1045F0001188BFF34F8FBFF36F8FFEE78843606072
:1046000000F078F960686968084468602046FFF740
:10461000E5FC2869401C2861BDE8704000F0B4BD8D
:1046200070BD0000680000204FF0E0200021016113
:10463000816105494FF47A720968B1FBF2F1491EB4
:1046400041610721016170471000002010B5FBF7A0
:1046500005FE114910280ED300F1E02090F8F00378
:104660000A78904207D2502080F31188BFF34F8F11
:10467000BFF36F8FFEE709480068896800F4E060C7
:10468000884207D9502080F31188BFF34F8FBFF3C2
:104690006F8FFEE710BD0000880000200CED00E0E9
:1046A00010B5084B002200BF53F832401CB1521C19
:1046B000082AF9D310BD43F8321003EBC201486059
:1046C00010BD0000E402002070B515460E460446F9
:1046D000FFF744FF94F944100020491C01D184F8ED
:1046E000440094F94510491C01D184F84500FFF7B6
:1046F00055FFA06B28B92A46314604F1240000F08A
:1047000099F82046BDE87040FFF716BE10B50200CC
:1047100014D00F48006B38B1502080F31188BFF3DC
:104720004F8FBFF36F8FFEE700F0E4F800211046D3
:10473000FFF76EFA00F028FD002807D105494FF079
:1047400080500860BFF34F8FBFF36F8F10BD000024
:104750001400002004ED00E070B50546FFF7FEFEF2
:104760001E4C05B92568281DFFF79CFEA86A18B1E4
:1047700005F11800FFF796FE606A401C6062206831
:10478000854207D1291D1648FFF7DCFE6068401CF2
:10479000606007E0A068401EA0602846FFF743FB6A
:1047A000FFF74AFDFFF7FAFE6069002814D0206881
:1047B000854211D1206B38B1502080F31188BFF3AE
:1047C0004F8FBFF36F8FFEE706494FF080500860B0
:1047D000BFF34F8FBFF36F8F70BD00001400002038
:1047E000C007002004ED00E002490A6A0260C968BF
:1047F000416070471400002001490120C8617047E2
:104800001400002010B50C4650B109490968183150
:10481000FFF780FE2046BDE810400121FFF7F8B900
:10482000502080F31188BFF34F8FBFF36F8FFEE7E7
:104830001400002070B514460D4668B10A49096895
:104840001831FFF77FFE0CB14FF0FF3521462846A7
:10485000BDE87040FFF7DCB9502080F31188BFF34A
:104860004F8FBFF36F8FFEE71400002030B587B085
:104870000024039405AA04A903A80494FFF726FEC4
:10488000DDE903010094CDE90110002315A11748CB
:10489000059A00F05EFB164D0028E8621FD000F07C
:1048A000D5FC012809D0401C19D1502080F3118873
:1048B000BFF34F8FBFF36F8FFEE7502080F3118857
:1048C000BFF34F8FBFF36F8F4FF0FF30A86201200F
:1048D0006861EC6007B0BDE8304000F045B807B053
:1048E00030BD000049444C4500000000A93E0008CE
:1048F000140000200248016B491C0163704700004E
:1049000014000020164810B5016B11B10121C161DE
:1049100010BD0021C1610169124A01E0B9B1491E0F
:1049200001EB810352F82330002BF7D001EB810318
:1049300002EB830202F1080453685B685360A342F0
:1049400001D15B685360DA680260016110BD5020DC
:1049500080F31188BFF34F8FBFF36F8FFEE7000026
:1049600014000020240300201CB52649087801907B
:10497000FF20087008788DF800009DF800009DF871
:10498000002000F0F000904207D0502080F3118802
:10499000BFF34F8FBFF36F8FFEE79DF800001A4CF7
:1049A00000F0500020700720A06005E09DF8002076
:1049B00052008DF80020401E9DF800201206F5D40C
:1049C000A060032807D0502080F31188BFF34F8FD9
:1049D000BFF36F8FFEE74FF44070A060019808703E
:1049E0000A48016841F470010160016841F07041BA
:1049F0000160FFF719FE00206060FBF7F9FB002063
:104A00001CBD000000E400E08800002020ED00E074
:104A100010B5502080F31188BFF34F8FBFF36F8F15
:104A200000F0D6FA18B104494FF080500860002019
:104A300080F3118810BD000004ED00E038B5049D3E
:104A400018B153B1CAB181B120E0502080F3118870
:104A5000BFF34F8FBFF36F8FFEE7502080F31188B5
:104A6000BFF34F8FBFF36F8FFEE7502080F31188A5
:104A7000BFF34F8FBFF36F8FFEE739B1502080F344
:104A80001188BFF34F8FBFF36F8FFEE750241C4692
:104A9000012384F846302B460094FFF735FA204670
:104AA00038BD000070B50D46040025D0FFF756FD57
:104AB000D4E90F20216802FB0011A1600021A1634D
:104AC000216861600A46D4E90F01401E00FB012104
:104AD000E16021464FF0FF3001F8440F487004F1C7
:104AE00010008DB1FFF708FD04F12400FFF704FD6D
:104AF000FFF754FD012070BD502080F31188BFF3F3
:104B00004F8FBFF36F8FFEE721690029F0D000F0CF
:104B100003FB0028ECD004494FF080500860BFF33D
:104B20004F8FBFF36F8FE3E704ED00E02DE9FF4700
:104B300082B01D468A464FF00008040003D0BAF147
:104B4000000F08D011E0502080F31188BFF34F8F81
:104B5000BFF36F8FFEE7206C38B1502080F31188CF
:104B6000BFF34F8FBFF36F8FFEE7022D0AD1E06BCB
:104B7000012807D0502080F31188BFF34F8FBFF377
:104B80006F8FFEE700F010FA3F4F4FF000094FF033
:104B9000805648B9049838B1502080F31188BFF38B
:104BA0004F8FBFF36F8FFEE7FFF7D8FCA06BE16B71
:104BB000884207D3022D05D00498D0B1B8F1000F78
:104BC0001AD01EE02A4651462046FFF7F6F8616AE1
:104BD00019B104F1240000F09FFA20B13E60BFF348
:104BE0004F8FBFF36F8FFFF7D9FC012006B0BDE8F0
:104BF000F087FFF7D3FC22E06846FFF7F5FD4FF0A2
:104C00000108FFF7CBFCFFF775FEFFF7A7FC94F94F
:104C10004400401C01D184F8449094F94500401CA4
:104C200001D184F84590FFF7B9FC04A9684600F06B
:104C300029F930B12046FFF77FFB00F0A5FA0020EC
:104C4000D4E7FFF78BFCA06BE16B884213D1FFF731
:104C5000A5FC04F110000499FFF7D4FD2046FFF7EE
:104C60006BFB00F091FA00289ED13E60BFF34F8F9E
:104C7000BFF36F8F98E7FFF791FC2046FFF75CFBCF
:104C800000F082FA90E7000004ED00E02DE9F04723
:104C90001F4690468946040003D0B9F1000F08D0A2
:104CA00011E0502080F31188BFF34F8FBFF36F8F57
:104CB000FEE7206C38B1502080F31188BFF34F8F8E
:104CC000BFF36F8FFEE7022F0AD1E06B012807D0F8
:104CD000502080F31188BFF34F8FBFF36F8FFEE733
:104CE000FFF7B4FC5020EFF3118680F31188BFF377
:104CF0004F8FBFF36F8FA06BE16B884206D3022FFB
:104D000004D0002086F31188BDE8F08794F945505F
:104D1000A06B3A4649462046FFF74FF8681C04D07E
:104D20006D1C84F845500120ECE7606A0028FAD039
:104D300004F1240000F0F0F90028F4D0B8F1000FDD
:104D4000F1D00121C8F80010EDE700002DE9F74788
:104D5000002683B08A46040003D0BAF1000F08D0C1
:104D600011E0502080F31188BFF34F8FBFF36F8F96
:104D7000FEE7206C38B1502080F31188BFF34F8FCD
:104D8000BFF36F8FFEE700F00FF9DFF8F4804FF00C
:104D900000094FF0805748B9059838B1502080F38A
:104DA0001188BFF34F8FBFF36F8FFEE7FFF7D6FB7E
:104DB000A56BC5B151462046FEF7ECFF6D1EA563FD
:104DC000206950B104F1100000F0A6F928B1C8F82C
:104DD0000070BFF34F8FBFF36F8FFFF7DFFB012032
:104DE00006B0BDE8F087059808B11EB106E0FFF7F0
:104DF000D5FB27E06846FFF7F7FC0126FFF7CEFB5F
:104E0000FFF778FDFFF7AAFB94F94400401C01D19D
:104E100084F8449094F94500401C01D184F84590F1
:104E2000FFF7BCFB05A9684600F02CF800282046D7
:104E30000AD0FFF781FA00F0A7F92046FFF710F932
:104E40000028B3D00020CBE7FFF70AF990B104F1B6
:104E500024000599FFF7D6FC2046FFF76DFA00F015
:104E600093F90028A2D1C8F80070BFF34F8FBFF3A9
:104E70006F8F9BE72046FFF75FFA00F085F995E713
:104E800004ED00E02DE9F0410C46050011D0C4B15D
:104E9000FFF764FB174BDA686E682068911B471CAC
:104EA00017D02F681B6A9F4219D0964217D8012449
:104EB00010E0502080F31188BFF34F8FBFF36F8F46
:104EC000FEE7502080F31188BFF34F8FBFF36F8F41
:104ED000FEE70024FFF762FB2046BDE8F081884230
:104EE00005D9401A20602846FFF77EFCF1E7002034
:104EF0002060DCE7140000202DE9FF5F8346DDE938
:104F00000E87994616468A469000FFF74BFA050031
:104F10001CD05C20FFF746FA040014D00020256363
:104F200084F85900CDE90240CDE900874B4632466E
:104F300051465846FEF7FAFF2046FEF797FE01203D
:104F400004B0BDE8F09F2846FFF73CFB4FF0FF3070
:104F5000F6E7F0B585B0DDE90B640A9DA6B1DCB1DA
:104F60005C2700972663022684F85960002604AF68
:104F7000CDE90246CDE90057FEF7D8FF2046FEF7FF
:104F800075FE049805B0F0BD502080F31188BFF382
:104F90004F8FBFF36F8FFEE7502080F31188BFF370
:104FA0004F8FBFF36F8FFEE70548416919B1006B62
:104FB00018B10020704701207047022070470000A0
:104FC000140000200148C068704700001400002051
:104FD0002DE9F0412E4C0027206B28B1A069401C20
:104FE000A0613846BDE8F081E668761CE66013D122
:104FF000606B006838B1502080F31188BFF34F8F89
:10500000BFF36F8FFEE7606BA16B6163A063206AE3
:10501000401C2062FFF710F9A06ADFF87880864212
:1050200009D3606B0068A0B1606BC068C568686830
:10503000864211D2A0622068C06A00EB800158F855
:105040002100012800D90127E0690028C9D00127E3
:10505000C7E74FF0FF30EDE7281DFFF723FAA86AF6
:1050600018B105F11800FFF71DFAE86A21698842B6
:1050700000D9206100EB800108EB8100291DFFF7BA
:1050800061FAE86A2168C96A8842CAD30127C8E779
:10509000140000202403002070B504004FF000012C
:1050A00033D01B4D2868844207D0502080F31188EC
:1050B000BFF34F8FBFF36F8FFEE7206D38B1401EF7
:1050C0002065E36CE26A9A421FD040B11DE0502097
:1050D00080F31188BFF34F8FBFF36F8FFEE7201D62
:1050E000FFF7E0F9E06CE062C0F13800A061E06A2F
:1050F0002969884200D92861064900EB800001EB4C
:105100008000211DFFF71EFA0121084670BD000036
:10511000140000202403002070B5C068C46854B196
:1051200004F118000646FFF7BDF9144D286B50B185
:105130003146134815E0502080F31188BFF34F8F9C
:10514000BFF36F8FFEE7201DFFF7ACF9E06A296916
:10515000884200D928610B4900EB800001EB8000F8
:10516000211DFFF7EFF9E06A2968C96A884202D970
:105170000120E86170BD002070BD00001400002017
:10518000AC070020240300202DE9F0472C4D00241B
:105190002746286B38B1FFF7E1F9286B401E2863DA
:1051A000286B40B146E0502080F31188BFF34F8F49
:1051B000BFF36F8FFEE7A968224E0120D1B3A6F599
:1051C000916980463068E0B1F068C46804F1180065
:1051D000FFF768F9201DFFF765F9E06A2969884241
:1051E00000D9286100EB800109EB8100211DFFF748
:1051F000A9F9E06A2968C96A8842E3D3C5F81C8026
:10520000E0E70CB1FFF718F8AC694CB14FEA0806BB
:10521000FFF7DEFE00B1EE61641EF9D10020A86147
:10522000E86938B10849012738070860BFF34F8F94
:10523000BFF36F8FFFF7B2F93846BDE8F087000083
:1052400014000020AC07002004ED00E010B586B08B
:10525000FEF774FD114C2068B8B100200390049053
:1052600005AA04A903A8FFF73BF9DDE90321022001
:105270008DE8070000230AA10B48059AFFF769FE95
:10528000606010B106B0012010BD502080F311887D
:10529000BFF34F8FBFF36F8FFEE700005000002079
:1052A000546D722053766300154300082DE9FF41C9
:1052B0001E46134602000A9D4FF0000016D0144C03
:1052C0002768002F0FD0CDE900130292062917DAC4
:1052D000FFF76AFE02284FF000030FD00022694654
:1052E0002068FFF723FC04B0BDE8F081502080F374
:1052F0001188BFF34F8FBFF36F8FFEE72A46EEE7AB
:105300000023324669463846FFF7C0FCEBE7000051
:105310005000002010B500290AD00878002807D0D6
:1053200005487844FBF71EFE002801D0002010BD80
:105330000248784410BD00004A11000042110000EC
:1053400021F00042A2F16052B2F5801F01F000434B
:1053500028BFD2F17F6C0BD95FEA001C43EAC2027E
:1053600042EB507018BF704728BF20F00100704713
:10537000B2F5801FBCBF184670474FEA410C1CF5C0
:10538000001F02D2084600F086BE70B500F05CFB3C
:1053900000000089FFF7F6BF4FF00040A0F5800045
:1053A0007047000010B591EA030F48BF83F0004337
:1053B00000F1B283841A71EB030C05D2121943EB8E
:1053C0000C03001B61EB0C01DFF824E14FEA1154E0
:1053D000A4EB135C1EEA430F18BF9EEA445F73D030
:1053E00023EA0E03DCF1200E21EA045143F480137A
:1053F00032D322FA0CFE10EB0E0023FA0CFE41EB26
:105400000E01CCF1200E03FA0EFE10EB0E0051F14E
:105410000001B1F5801FCCF1200E32D201EB045116
:1054200012FA0EF2BDE8104058BF7047401C38BF5A
:105430005FEA420218BF7047002814BF20F0010045
:1054400041F100014FEA410313F5001F38BF7047D7
:10545000A1F1C04100F046BB012A43EB0302ACF1CD
:10546000200CDCF11F0E32BF4FF0000E23FA0CF3BC
:1054700010EB030041EB0451B4EB115FD0D0A1EB72
:10548000045101F5801149085FEA300001EB045135
:105490000ED350F1000038BF12FA0EFE08D1BDE85D
:1054A0001040C9E7401C38BF5FEA4202CAD1C3E7D7
:1054B000BDE810404FEA410313F5001F38BF7047A5
:1054C000A1F1C04100F00EBB9EEA445F08D011EA92
:1054D0005E0FBDE8104004BF01F00041002070479E
:1054E000BDE8104070B500F0AFFA00BF64FBBE3EEF
:1054F0000000E0FF02494FF0000000F048BE00BF8E
:105500000000F87F491058BFC1F140415B1058BFFF
:10551000C3F140438B42EFF3008070472DE9C04157
:1055200030B4DFF8A0C23CEA111418BF3CEA1314EF
:1055300000F0EC8081EA03051CEA111444EAD574FA
:1055400018BF1CEA131500F0C780A4EB05044FF048
:10555000004545EAC12145EAC32341EA505143EAE7
:10556000525304F17F74994204F500344FEAC0208D
:105570004FEAC22208BF904200F09C804FEA1365B8
:105580000FF24016765D4FEA134506FB05F7C7F1AB
:10559000807706FB07F74FEAD737A7FB0368764209
:1055A000C8F58038A7FB06CE38BFA8F1010807FB75
:1055B00008E64FF0000EA6FB028CE6FB03CEDCF102
:1055C000000CCEF1004E38BFAEF1010EA6FB0C5818
:1055D0004FF000074FF00005E6FB0E87A1FB08C661
:1055E000A0FB07CE16EB0E0645F10005E1FB0765B3
:1055F00015F1E04E7EBFA4F580345FEA46066D41AA
:1056000016F1800745F100054FEA17274FEA0666B5
:1056100047EA0567A6F1DE46B6F1805F4FEA152539
:105620001FD9384624F0010C05EBC471BCF1FE6FA4
:1056300001EB0C1102D8F0BCBDE8008124425CBF34
:1056400001F5801E9EEAC47F02D4F0BCBDE8008153
:10565000244238D4F0BCA1F1C041BDE8004100F0C3
:1056600041BA4FEAD22242EA43524FEAD323A7FB80
:1056700002864FEAD02040EA415007FB03661EEA4B
:105680000E0F4FEAD12105FB026658BFA6EB00566C
:10569000B6EB00564FEA520E4EEAC37E18EB0E0EE2
:1056A00056EB530EBDD518EB02085E417F1C55F139
:1056B0000005B6E74FF480154FF000074FF00006E5
:1056C0004FF00008ADE7F0BC4FF0000001F1C04121
:1056D00001F00041BDE8008111EA0C1F0CEA13152E
:1056E00000D00CE013EA0C1F00F025804FF0000002
:1056F000F0BC81EA030101F00041BDE80081F0BC8B
:10570000BDE8004181EA030100F0ECB9F0BCBDE85E
:10571000004170B500F098F9097EFC3E00F007B832
:1057200081EA03014FF0000001F00041704781EA77
:10573000030100F0D7B9F0BCBDE800414FF0000014
:1057400021497047FFFDFBF9F7F5F4F2F0EEEDEBC0
:10575000E9E8E6E4E3E1E0DEDDDBDAD8D7D5D4D36F
:10576000D1D0CFCDCCCBCAC8C7C6C5C4C2C1C0BFBB
:10577000BEBDBCBBBAB9B8B7B6B5B4B3B2B1B0AFC1
:10578000AEADACABAAA9A8A8A7A6A5A4A3A3A2A1A5
:10579000A09F9F9E9D9C9C9B9A9999989797969560
:1057A00095949393929191908F8F8E8E8D8C8C8BFC
:1057B0008B8A898988888787868585848483838284
:1057C000828181800000FF070000F87F51EA030C0E
:1057D00017D41CF5801F58BFBCF5801F00F1068050
:1057E000994218BF704708BF9042704707D711F51C
:1057F000801F58BF13F5801F19D499427047894202
:1058000070471CF5801F08D5BCF5801FF7D58B426B
:1058100018BF704708BF824270474FF4001C1CEB52
:10582000410F38BF1CEB430F01D28B42704770B55C
:1058300000F00AF9922449004FF000514FF08053D4
:10584000FFF760BE4FEA1153A3F58063D3F11E0347
:10585000A8BFD3F1200C08DB4FF0004242EAC1227E
:1058600052EA505232FA03F0704709420BD4102B1F
:10587000C4BF0020704703F5787CBCF1FF3F05D022
:105880004FF0FF3070474FF00000704770B500F0E8
:10589000DBF800BF4992248000207047F0E710F049
:1058A000004248BF4042B0FA80F310FA03F10AD038
:1058B000C3F11D0303F580634FEA415002EB03522D
:1058C00002EBD12170474FF000007047B0FA80F32F
:1058D00010FA03F10AD0C3F11D0303F580634FEA08
:1058E00041504FEA035202EBD12170474FF00000C4
:1058F00070470000DFF848C170B51CEA111E1EBFDA
:105900001CEA13159EEA0C0F95EA0C0F00F06F804D
:1059100081EA030423EA4C134EEAD47E21EA4C11B7
:1059200041F4801143F48013AE44A1FB024CA0FB70
:105930000365AEF17F7E361955EB0C05A1FB034CD8
:105940004CF10003A0FB021C16EB0C06654153F161
:105950000003094218BF46F0010613F4007F0BD183
:105960004FEA03314FEA0530340341EA155140EA6A
:1059700016506FF003020AE04FEAC3214FEAC52038
:10598000F40241EA555140EA56506FF0020202EB30
:105990002E4201EB025585EACE710AD05FEA440C33
:1059A00018BF24F0004450F1000041F1000120EA4A
:1059B000D47040F2FE7C624500D270BDA84214BF94
:1059C0004FF080444FF04044002E08BF0024BEF149
:1059D000806FA8BFA1F1C041BDE8704080F2828015
:1059E0004FF0000001F1C04101F0004170479EEA14
:1059F0000C0F0CEA131518BF95EA0C0F06D04FF0E8
:105A0000000081EA030E0EF0004170BD00F01CF8AA
:105A10008900013E00F007B800F009B84FEA430CD6
:105A20005FEA5C5C08D081EA030100F05BB84FEAF2
:105A3000410C5FEA5C5CF6D14FF000000149704711
:105A40000000FF070000F87F0EF1020E2EF0030E9B
:105A50005EF8046B364205D4012A43EB030515F5C5
:105A6000001F12D8012841EB010C1CF5001F0CD8B7
:105A70000ED14FEAD17C15F5001F0CEB4C0C0CF14C
:105A8000020C08BF4CEBD37C04E04FF0080C01E0A3
:105A90004FEAD37C0CEB4C0526FA05F606F0070618
:105AA000B6F1040C06D20EEB860CBDE870404CF04B
:105AB000010C6047DFE80CF0090B02024FF00041D7
:105AC0004FF00000A1F5002170BD194610460128D5
:105AD00051EB010418BFD4F5001484BF002001F07D
